:020000040000FA
:10000000880120204D010000510100005301000033
:1000100000000000000000000000000000000000E0
:10002000000000000000000000000000550100007A
:10003000000000000000000057010000590100000E
:100040005B0100005B0100005B0100005B01000040
:10005000E50100005B0100005B0100005B010000A6
:10006000000000005B0100005B01000000000000D8
:10007000000000005B0100005B010000A50600001D
:100080005B0100005B0100005B0100005B01000000
:100090005B0100005B0100000000000000000000A8
:1000A0005B0100005B010000000000000000000098
:1000B0005B010000000000005B0100005B0100002C
:1000C00000F002F800F032F80CA030C8083824180C
:1000D0002D18671EA246AB4654465D46AC4201D180
:1000E00000F024F87E460F3EB6460FCC0126334280
:1000F00000D0FB1A3343A246AB461847BC060000AB
:10010000CC0600000000000000230024002500268B
:10011000103A01D378C1FBD8520700D330C100D5C3
:100120000B6070471FB51FBD10B510BD00F027F85C
:100130001146FFF7F7FF00F0E3FA00F03FF803B4D1
:10014000FFF7F2FF03BC00F045F800000648004747
:10015000FEE7FEE7FEE7FEE7FEE7FEE703480449A9
:10016000024A044B70470000C100000088002020B4
:10017000880120208800202070477047704775460E
:1001800000F024F8AE46050069465346C008C0009A
:10019000854618B020B5FFF7E1FF60BCB6460026E3
:1001A0000027C0C5C0C5C0C5C0C5C0C5C0C5C0C585
:1001B000C0C5403D490849008D46704710B504460A
:1001C000C046C0462046FFF7BAFF10BD0048704742
:1001D0000000202001491820ABBEFEE726000200E7
:1001E0007047000005480068C0B20A2805D10448DD
:1001F0001021016003480121017070472010004068
:10020000B0120A4060002020B0B50A7803231340E2
:100210000B4A84580B4D2540EB18A92424061B19C2
:100220008350072212064B681340112424020559FB
:100230009543EA180251001949780161B0BDC046E2
:1002400008080000FCFFFF00811E091F00BFFCD250
:1002500070470000B0B5112212028358174C1C40A1
:100260008B888D681D43164B2B401B1983508B893F
:100270000C681C438B7B2343124C1C408018026982
:10028000114B1340E2180261CA7B0B694C6913439E
:1002900023430A8B1A430D4B1340026A0C4C144043
:1002A0001A1902628A7E898B11430A4A0A40016B3D
:1002B000094B0B40D1180163B0BDC046FFFEFEFFE5
:1002C0000001010003030001FCFCFFFE0103030128
:1002D000FEFCFCFE010F0000FEF0FFFFF0B584B055
:1002E000012422022A4B196803929143196035496F
:1002F0000D686D04FCD5457E25409E69A6437419A2
:100300009C612024045D03252C40DE69AE43341932
:10031000DC61204C256805262660466A37681F6226
:1003200076685E6207262E402660C4697F252D020E
:10033000DE69AE436406640C3419DC610768456805
:1003400082680092C66802690192426902929A69C3
:10035000114C14403A07120B2D03ADB2AA183243C8
:10036000009D2D072D0D1543019A1543029A154343
:10037000007E2843094A0240101998611868039AC0
:100380001043186008688005FCD504B0F0BDC04675
:1003900008010B40001340408D00F0FF72FF0F007A
:1003A00007498860074802689202FCD501221204BE
:1003B0000B6813430B600168C906FCD57047C04643
:1003C00004010B4004020B40B0B511221202835805
:1003D0000124A34383500B888C781C438B882343D0
:1003E000094C1C408358094D1D40631983508B797B
:1003F000CC791C43097A21437E2319408018426836
:100400009A4351184160B0BD18670000E798FDFF9E
:1004100010B50B4942580B4B134015221A4342505A
:10042000094942583F239A432D2313434350074918
:10043000425801231A4044589C431443445010BD71
:10044000101100000000FFFF141100000411000053
:1004500010B50122120383180C789C6049788150F2
:1004600010BD000010B50124A0071249FFF7CCFE13
:10047000DC2111484258114B134022041A434250C8
:10048000E02142580E4B134022061A4342500D49B8
:1004900000220A604C60EC21A02242506102026AF4
:1004A0000A43026202680A430260D821425822438A
:1004B000425010BD5007000028100040FEFFECFF26
:1004C000F8FFE0E08011004080B505480549FFF7DE
:1004D000C1FE0548016801220A43026080BDC04692
:1004E0000080014058070000009101400848011DAC
:1004F000084A91608821822353508C215050136305
:100500005063054810600548102101600163704781
:10051000820004002480424081000200A0120A40B0
:1005200070B51948002404600F200002174D696857
:1005300081430120460231436960296803229143C7
:100540002960C143AA680A40AA600202AB689343CB
:10055000AB60AA680A40AA600004A9680143A960C8
:100560000B48FFF7BBFE6868302188431021084321
:100570006860E86B0843E863A86BB043A863204653
:10058000FFF70EFF70BDC04608030B4000010B4093
:1005900078070000B0B50B4C0B492046FFF758FF19
:1005A0000A492046FFF710FF0320C003084D2968C1
:1005B000814329602046FFF72BFF28680121014372
:1005C0002960B0BD00201040A0070000A207000075
:1005D0000031104070B5124C12492046FFF738FF29
:1005E00011492046FFF7F0FED825584E70590321D7
:1005F000C903884370512046FFF70AFF012081029A
:1006000032680A433260FF210906084A13688B43A7
:1006100081071943116071590143715170BDC04682
:1006200000801040AC070000AE0700000CE400E0C2
:1006300080B500F00DF8FFF759FFFFF771FFFFF7E6
:10064000A9FFFFF7C7FFFFF70DFFFFF73DFF80BDD5
:1006500070B50C480C4941600C4A51600C4B596014
:100660000C4C61600C4D69600C4E71600C4901606E
:10067000116019602160296031601020FFF7E4FDEE
:1006800070BDC04600080A40030000B100280A40BF
:1006900000281040008810400008004000880140F9
:1006A0000100002614480068C0B20B2823D113486B
:1006B0000068C1B20A290BD00D2910D12248C17897
:1006C000411800220A71012141708270C270704786
:1006D0001D480121817000214170C17070471A4985
:1006E0008A78002A07D0CA781C2A04D8CA78531CF2
:1006F000CB708918087170472090104024911040E9
:1007000010B5FFF795FF0E48102101600121CA03C3
:10071000026008020B490A6802430A600A4C01E0C1
:10072000FFF792FD7D20C00021780029F8D000213C
:100730006170183005490A6802430A60FEE7C04646
:1007400000E100E0041100406000202028901040EB
:10075000010500000000000300000001000100008E
:100760000000000000020100000000000000000086
:100770000000000000000000010000000000000078
:100780000000000000000000000000001000000059
:100790000001000003000000000000003400C4411C
:1007A00008000000180000000030000008000000F1
:1007B0001800000000300000C807000000002020E2
:0807C00088010000080100009F
:04000005000000C136
:00000001FF
